:020000040000FA
:100000000C9463000C948B000C948B000C94EB020A
:100010000C94EB020C94EB020C948B000C948B0070
:100020000C948B000C948B000C948B000C948B0024
:100030000C948B000C948B000C948B000C948B0014
:100040000C9449020C948B000C94B9020C9493020A
:100050000C948B000C948B000C948B000C948B00F4
:100060000C948B000C948B0000000008000201002F
:100070000003040700000000000000000000000072
:1000800023002600290000000000240027002A0089
:1000900000000000250028002B00040404040404D0
:1000A0000404020202020202030303030303010227
:1000B00004081020408001020408102001020408F6
:1000C0001020AF03E50511241FBECFEFD8E0DEBF3F
:1000D000CDBF11E0A0E0B1E0E8E2FCE002C0059095
:1000E0000D92AC35B107D9F722E0ACE5B1E001C023
:1000F0001D92A536B207E1F710E0C2E6D0E004C0D9
:100100002197FE010E940106C136D107C9F70E945E
:1001100098040C9407060C940000AF92BF92CF9203
:10012000DF92EF92FF920F931F93CF93DF936C01B7
:100130007B018B01040F151FEB015E01AE18BF0898
:10014000C017D10759F06991D601ED91FC9101904A
:10015000F081E02DC6010995892B79F7C501DF9162
:10016000CF911F910F91FF90EF90DF90CF90BF90B4
:10017000AF900895FC01538D448D252F30E0842FDE
:1001800090E0821B930B541710F0CF9608950197BF
:100190000895FC01918D828D981761F0A28DAE0FAC
:1001A000BF2FB11D5D968C91928D9F5F9F73928F33
:1001B00090E008958FEF9FEF0895FC01918D828D5F
:1001C000981731F0828DE80FF11D858D90E008952C
:1001D0008FEF9FEF0895FC01918D228D892F90E084
:1001E000805C9F4F821B91098F739927089589EA3C
:1001F00091E00E94EB0021E0892B09F420E0822F9E
:10020000089580E090E0892B29F00E94F700811189
:100210000C9400000895FC01A48DA80FB92FB11D06
:10022000A35ABF4F2C91848D90E001968F7399272C
:10023000848FA689B7892C93A089B1898C9183700A
:1002400080648C93938D848D981306C00288F38903
:10025000E02D80818F7D80830895EF92FF920F9330
:100260001F93CF93DF93EC0181E0888F9B8D8C8D62
:1002700098131AC0E889F989808185FF15C09FB756
:10028000F894EE89FF896083E889F9898081837019
:10029000806480839FBF81E090E0DF91CF911F91C8
:1002A0000F91FF90EF900895F62E0B8D10E00F5FE9
:1002B0001F4F0F731127E02E8C8D8E110CC00FB6BF
:1002C00007FCFACFE889F989808185FFF5CFCE0157
:1002D0000E940B01F1CFEB8DEC0FFD2FF11DE35AC6
:1002E000FF4FF0829FB7F8940B8FEA89FB898081DA
:1002F0008062CFCFCF93DF93EC01888D8823B9F054
:10030000AA89BB89E889F9898C9185FD03C0808120
:1003100086FD0DC00FB607FCF7CF8C9185FFF2CF9D
:10032000808185FFEDCFCE010E940B01E9CFDF91E7
:10033000CF91089520919E0130919F012817390790
:1003400071F490919C0180919D01981741F0E0918A
:100350009C01F0E0E45AFE4F808190E008958FEF19
:100360009FEF08950895EF92FF920F931F93CF93FD
:10037000DF93DC015C96ED90FC905D97E114F10455
:1003800079F481E090E013969C938E93129790E01D
:1003900080E0DF91CF911F910F91FF90EF90089532
:1003A0005196ED91FC91529750968C915097982FC1
:1003B00090950FB75E962C915E97122F127021FDCB
:1003C0006095F8942081112319F1282B2083E701EF
:1003D0002197F1F728E0462F50E0308160FF1AC0E6
:1003E000382B3083E7012197F1F7BA0175956795AE
:1003F000215089F7112381F08081892380830FBFE9
:100400005C968D919C910197F1F781E090E0C1CFCE
:100410002923DCCF3923E5CF9081892BEFCF2091A1
:100420009E0130919F012817390761F480919D0149
:1004300020919C0190E0805C9F4F821B91098F73FB
:100440009927089590E080E0089520919E013091D1
:100450009F0128173907B9F490919C0180919D0163
:10046000981789F0E0919C01F0E0E45AFE4F8081FA
:1004700020919C0130E02F5F3F4F2F733327209353
:100480009C0190E008958FEF9FEF089590E080E049
:1004900008951F920F920FB60F9211242F933F933E
:1004A0008F939F93AF93BF938091A5019091A601E5
:1004B000A091A701B091A8013091A40123E0230FDE
:1004C0002D3758F50196A11DB11D2093A4018093ED
:1004D000A5019093A601A093A701B093A8018091D4
:1004E000A0019091A101A091A201B091A301019658
:1004F000A11DB11D8093A0019093A101A093A20121
:10050000B093A301BF91AF919F918F913F912F9194
:100510000F900FBE0F901F90189526E8230F02969C
:10052000A11DB11DD2CF1F920F920FB60F921124B1
:100530002F933F934F935F936F937F938F939F93EB
:10054000AF93BF93EF93FF9389EA91E00E940B0171
:10055000FF91EF91BF91AF919F918F917F916F919B
:100560005F914F913F912F910F900FBE0F901F9071
:1005700018951F920F920FB60F9211242F938F93FD
:100580009F93EF93FF93E091B901F091BA018081BD
:10059000E091BF01F091C00182FD1BC0908180916C
:1005A000C2018F5F8F732091C301821741F0E091E8
:1005B000C201F0E0E755FE4F958F8093C201FF9195
:1005C000EF919F918F912F910F900FBE0F901F90E1
:1005D00018958081F4CF1F920F920FB60F921124BD
:1005E0002F933F934F935F936F937F938F939F933B
:1005F000AF93BF93EF93FF93E0919E01F0919F0122
:10060000309749F0A685B7858585968D91FF14C0F2
:100610009C918923A1F4FF91EF91BF91AF919F919C
:100620008F917F916F915F914F913F912F910F909B
:100630000FBE0F901F9018959C91892361F7A38995
:10064000B4899C918589809589238C938689978923
:100650000197F1F7608D718DA685B785558538E0D6
:1006600020E0CB010197F1F7822F90E095958795D7
:10067000282F4C91452309F02068315091F7868D41
:1006800081FD209580919D0190E001968F739927BF
:1006900030919C01381799F0A0919D01B0E0A45AC7
:1006A000BE4F2C9380939D01828D938D0197F1F71E
:1006B000A389B4898C919589892B8C93ACCF868D35
:1006C0008160868FF1CF90E0FC01E859FF4F2491C3
:1006D000FC01E255FF4F3491FC01E656FF4FE491D7
:1006E000EE23C9F0222339F0233001F1A8F42130A0
:1006F00019F1223029F1F0E0EE0FFF1FE057FF4F14
:10070000A591B4918FB7F894EC91611126C0309502
:100710003E233C938FBF08952730A9F02830C9F0BD
:10072000243049F7809180008F7D03C08091800044
:100730008F7780938000DFCF84B58F7784BDDBCF48
:1007400084B58F7DFBCF8091B0008F778093B00010
:10075000D2CF8091B0008F7DF9CF3E2BDACF0F93AF
:100760001F93CF93DF931092AC011092AB0188EEF0
:1007700093E0A0E0B0E08093AD019093AE01A09330
:10078000AF01B093B00124E031E03093AA0120938F
:10079000A90125EC30E03093B6012093B50124EC9B
:1007A00030E03093B8012093B70120EC30E0309373
:1007B000BA012093B90121EC30E03093BC012093C1
:1007C000BB0122EC30E03093BE012093BD0126EC4A
:1007D00030E03093C0012093BF011092C20110920B
:1007E000C3011092C4011092C501109249021092E7
:1007F000480280934A0290934B02A0934C02B0931C
:100800004D0286E191E09093470280934602109258
:100810005D0210925C0210925F0210925E021092D2
:100820006102109260021092630210926202609163
:1008300064026E7F6D7F609364026695617081E0F3
:10084000682788E00E94630346EB50E0FA01649158
:1008500082EA90E0FC012491222399F030E0220FFB
:10086000331FF901EA57FF4FA591B491F901E05701
:10087000FF4F259134912FB7F8943C91632B6C93E3
:100880002FBFFA01449140935602FC018491E82F56
:10089000F0E0EE0FFF1FE057FF4F8591949190938A
:1008A00058028093570207EB10E0F8012491C3EA45
:1008B000D0E0FE0184918823C9F090E0880F991F51
:1008C000FC01EA57FF4FA591B491FC01E057FF4F9F
:1008D000459154913FB7F8949C91822F809598232D
:1008E0009C93FA019081892380833FBF80916402A9
:1008F00081FD04C061E089E00E94630389E0809388
:100900005202F801049100935302FE01C491EC2FAE
:10091000F0E0EE0FFF1FE458FF4F85919491909304
:10092000550280935402DF91CF911F910F9108954A
:10093000789484B5826084BD84B5816084BD85B5BA
:10094000826085BD85B5816085BD80916E008160C6
:1009500080936E001092810080918100826080936C
:10096000810080918100816080938100809180006E
:100970008160809380008091B10084608093B10099
:100980008091B00081608093B00080917A00846093
:1009900080937A0080917A00826080937A008091BF
:1009A0007A00816080937A0080917A0080688093D9
:1009B0007A001092C100E091B901F091BA0182E091
:1009C0008083E091B501F091B6011082E091B7010A
:1009D000F091B8018FEC80831092C101E091BD01CC
:1009E000F091BE0186E08083E091BB01F091BC01F3
:1009F000808180618083E091BB01F091BC018081A6
:100A000088608083E091BB01F091BC0180818068A7
:100A10008083E091BB01F091BC0180818F7D808358
:100A2000109261021092600210925F0210925E02B8
:100A300010925D0210925C028DE991E09093630246
:100A40008093620290915202963108F047C02DEBDC
:100A500030E030935D0220935C022BE931E030936B
:100A60005F0220935E022CE231E03093610220931A
:100A700060022091680084E0983048F031E09E30B8
:100A800008F430E081E001C0880F3A95EAF7822B44
:100A9000809368002DE630E0983050F02BE630E08F
:100AA0009E3030F02CE630E0963110F030E020E05F
:100AB00030935A0220935902292F30E0983008F0E1
:100AC00077C081E001C0880F9A95EAF780935B02B6
:100AD00080916202909163020197F1F78091600228
:100AE00090916102892B49F1E0919E01F0919F0163
:100AF00082E0E634F80709F1309739F0A389B48928
:100B00009C918589809589238C93809164028E7F46
:100B10008093640210929D0110929C0186E492E001
:100B200090939F0180939E01E0915902F0915A02A7
:100B3000808190915B02892B808344E350E064E2E2
:100B400071E089EA91E00E948D0042E050E069E5A1
:100B500071E089EA91E00E948D00C0E0D0E089EA6E
:100B600091E00E94EB00181619064CF489EA91E016
:100B70000E94C900682F86E492E00E94B30186E4D7
:100B800092E00E940F02181619064CF486E492E0D7
:100B90000E942502682F89EA91E00E942D0120978A
:100BA000F1F20E94F7008823D1F20E940000D7CF13
:100BB0009E3040F42850310981E001C0880F2A9509
:100BC000EAF784CF2E503109F7CF86E191E0909378
:100BD00047028093460280919E0190919F01865426
:100BE000924071F4E0915902F0915A029081809103
:100BF0005B0280958923808310929F0110929E0151
:100C00000895EE0FFF1F0590F491E02D099410E078
:100C1000C2E6D0E004C0FE010E9401062196C33660
:100C2000D107C9F7F894FFCF000000002D018D0017
:100C3000BA007A01EB00C900DD0000000000B3013A
:100C40008D004602B2010F0225029A014152443141
:100C50002073616E2073616E672E204E6861702074
:100C60006C656E682064652064696575206B6869D1
:100C7000656E204C45442071756120415244322EEE
:040C8000000D0A0059
:107E0000112484B714BE81FFF0D085E080938100F7
:107E100082E08093C00088E18093C10086E0809377
:107E2000C20080E18093C4008EE0C9D0259A86E02C
:107E300020E33CEF91E0309385002093840096BBD3
:107E4000B09BFECF1D9AA8958150A9F7CC24DD24C4
:107E500088248394B5E0AB2EA1E19A2EF3E0BF2EE7
:107E6000A2D0813461F49FD0082FAFD0023811F036
:107E7000013811F484E001C083E08DD089C08234E0
:107E800011F484E103C0853419F485E0A6D080C0E4
:107E9000853579F488D0E82EFF2485D0082F10E0AE
:107EA000102F00270E291F29000F111F8ED06801E7
:107EB0006FC0863521F484E090D080E0DECF843638
:107EC00009F040C070D06FD0082F6DD080E0C81688
:107ED00080E7D80618F4F601B7BEE895C0E0D1E017
:107EE00062D089930C17E1F7F0E0CF16F0E7DF06D8
:107EF00018F0F601B7BEE89568D007B600FCFDCFD4
:107F0000A601A0E0B1E02C9130E011968C91119780
:107F100090E0982F8827822B932B1296FA010C0160
:107F200087BEE89511244E5F5F4FF1E0A038BF0790
:107F300051F7F601A7BEE89507B600FCFDCF97BE46
:107F4000E89526C08437B1F42ED02DD0F82E2BD052
:107F50003CD0F601EF2C8F010F5F1F4F84911BD097
:107F6000EA94F801C1F70894C11CD11CFA94CF0C13
:107F7000D11C0EC0853739F428D08EE10CD085E9AC
:107F80000AD08FE07ACF813511F488E018D01DD067
:107F900080E101D065CF982F8091C00085FFFCCF94
:107FA0009093C60008958091C00087FFFCCF809118
:107FB000C00084FD01C0A8958091C6000895E0E648
:107FC000F0E098E1908380830895EDDF803219F02E
:107FD00088E0F5DFFFCF84E1DECF1F93182FE3DFCA
:107FE0001150E9F7F2DF1F91089580E0E8DFEE27F6
:047FF000FF270994CA
:027FFE00040479
:00000001FF
