:100000000C9462000C948A000C948A000C948A0070
:100010000C948A000C948A000C948A000C948A0038
:100020000C948A000C948A000C948A000C948A0028
:100030000C948A000C948A000C948A000C948A0018
:100040000C94F5030C948A000C9465040C943F0402
:100050000C948A000C948A000C948A000C948A00F8
:100060000C948A000C948A000000000024002700F1
:100070002A000000000023002600290000000000E4
:10008000250028002B0004040404040404040202D4
:100090000202020203030303030301020408102007
:1000A0004080010204081020010204081020000012
:1000B0000008000201000003040700000000000027
:1000C0000000850611241FBECFEFD8E0DEBFCDBFF4
:1000D00011E0A0E0B1E0E8EBFDE002C005900D9278
:1000E000AC3DB107D9F722E0ACEDB1E001C01D9203
:1000F000A239B207E1F710E0C2E6D0E004C02197D0
:10010000FE010E94D406C136D107C9F70E949704A8
:100110000C94DA060C940000CF92DF92EF92FF92DB
:100120006B017C01E0910502F091060282E0808380
:10013000C11481EED806E104F104A1F060E079E099
:100140008DE390E0A70196010E94B206215031098B
:10015000410951095695479537952795211580E115
:100160003807A8F0E0910502F0910602108260E8DD
:1001700074E88EE190E0A70196010E94B20621503A
:100180003109410951095695479537952795E091D1
:100190000102F09102023083E0910302F091040227
:1001A000208310920D02E0910902F0910A0286E08C
:1001B0008083E0910702F091080280818061808352
:1001C000E0910702F0910802808188608083E091CD
:1001D0000702F0910802808180688083E091070225
:1001E000F091080280818F7D8083FF90EF90DF90F7
:1001F000CF900895833081F028F4813099F08230D7
:10020000A9F008958730A9F08830C9F08430B1F49E
:10021000809180008F7D03C0809180008F778093D4
:100220008000089584B58F7784BD089584B58F7D4F
:10023000FBCF8091B0008F778093B00008958091BC
:10024000B0008F7DF9CF1F93CF93DF93EBEBF0E0FE
:100250009491E7EAF0E0D491E3E9F0E0C491CC2393
:10026000B9F0182F992319F0892F0E94FA00EC2F6A
:10027000F0E0EE0FFF1FE458FF4FA591B4918FB748
:10028000F894EC91111108C0D095DE23DC938FBF58
:10029000DF91CF911F910895DE2BF8CF3FB7F894EF
:1002A0008091F1019091F201A091F301B091F401DC
:1002B00026B5A89B05C02F3F19F00196A11DB11DC1
:1002C0003FBFBA2FA92F982F8827BC01CD01620FFD
:1002D000711D811D911D42E0660F771F881F991FB8
:1002E0004A95D1F708958F929F92AF92BF92CF9285
:1002F000DF92EF92FF926B017C010E944E014B0155
:100300005C01C114D104E104F104B9F00E944E0172
:10031000681979098A099B09683E7340810591052E
:1003200080F321E0C21AD108E108F10888EE880EB6
:1003300083E0981EA11CB11CE4CFFF90EF90DF90EA
:10034000CF90BF90AF909F908F9008952FB7F89463
:100350006091ED017091EE018091EF019091F001BB
:100360002FBF0895AF92BF92CF92DF92EF92FF928C
:100370000F931F93CF93DF936C017B018B01040FCD
:10038000151FEB015E01AE18BF08C017D10759F069
:100390006991D601ED91FC910190F081E02DC601AB
:1003A0000995892B79F7C501DF91CF911F910F91A5
:1003B000FF90EF90DF90CF90BF90AF900895FC0139
:1003C000538D448D252F30E0842F90E0821B930BBA
:1003D000541710F0CF96089501970895FC01918D60
:1003E000828D981761F0A28DAE0FBF2FB11D5D9663
:1003F0008C91928D9F5F9F73928F90E008958FEF05
:100400009FEF0895FC01918D828D981731F0828DB8
:10041000E80FF11D858D90E008958FEF9FEF08950F
:10042000FC01918D228D892F90E0805C9F4F821B73
:1004300091098F739927089585EF91E00E9410022A
:1004400021E0892B09F420E0822F089580E090E0DC
:10045000892B29F00E941C0281110C940000089540
:10046000FC01A48DA80FB92FB11DA35ABF4F2C9129
:10047000848D90E001968F739927848FA689B78920
:100480002C93A089B1898C91837080648C93938D17
:10049000848D981306C00288F389E02D80818F7DBA
:1004A00080830895EF92FF920F931F93CF93DF9372
:1004B000EC0181E0888F9B8D8C8D98131AC0E889A0
:1004C000F989808185FF15C09FB7F894EE89FF896F
:1004D0006083E889F98980818370806480839FBF0D
:1004E00081E090E0DF91CF911F910F91FF90EF900D
:1004F0000895F62E0B8D10E00F5F1F4F0F7311271D
:10050000E02E8C8D8E110CC00FB607FCFACFE88957
:10051000F989808185FFF5CFCE010E943002F1CFAD
:10052000EB8DEC0FFD2FF11DE35AFF4FF0829FB7CB
:10053000F8940B8FEA89FB8980818062CFCFCF93BB
:10054000DF93EC01888D8823B9F0AA89BB89E889FB
:10055000F9898C9185FD03C0808186FD0DC00FB6A1
:1005600007FCF7CF8C9185FFF2CF808185FFEDCF1F
:10057000CE010E943002E9CFDF91CF9108958F9292
:100580009F92AF92BF92CF92DF92EF92FF920F9322
:100590001F93CF93DF938C01D0E0C0E04B01770F26
:1005A000AA08BB086A01550FEE08FF0881E00E9407
:1005B0002301C501B4010E94730180E00E94230160
:1005C000C701B6010E94730121960C171D0771F730
:1005D000DF91CF911F910F91FF90EF90DF90CF901F
:1005E000BF90AF909F908F900895FC0101900020E4
:1005F000E9F73197AF01481B590BBC0185EF91E03A
:100600000C94B201CF93DF930E94F502EC0188E1D4
:1006100091E00E94F5028C0F9D1FDF91CF9108950C
:100620008F929F92AF92BF92CF92DF92EF92FF9202
:100630000F931F93CF93DF93CDB7DEB7A1970FB67C
:10064000F894DEBF0FBECDBF6B017C01F7FE41C049
:100650006DE285EF91E00E9452028C012227332740
:10066000A9012C193D094E095F0919A2CE018196F5
:100670007C019AE0892E912CA12CB12CCA01B901E0
:10068000A50194010E94B206605DF70162937F01AB
:10069000211531054105510589F790E080E030973B
:1006A00019F0CF010E94F502800F911FA1960FB69D
:1006B000F894DEBF0FBECDBFDF91CF911F910F9198
:1006C000FF90EF90DF90CF90BF90AF909F908F9072
:1006D0000895AC019B0119A28E010F5D1F4F8AE0A6
:1006E000C82ED12CE12CF12CCA01B901A701960129
:1006F0000E94B206605DF80162938F0121153105F9
:100700004105510589F790E080E0309779F2CF01FB
:100710000E94F502CBCFCF93DF930E941003EC0130
:1007200088E191E00E94F5028C0F9D1FDF91CF912F
:100730000895CF92DF92EF92FF926B017C01C092FD
:100740000001D0920101E0920201F09203018BE1DD
:1007500091E00E94F502C701B6010E948B0385EF6C
:1007600091E00E949F0285EF91E00E949F02E5EFD9
:10077000F1E0A289B3898C918F7E8C93A289B38991
:100780008C91877F8C93A289B3898C918F778C937E
:10079000A289B3898C918F7D8C93828D818F60919A
:1007A00000017091010180910201909103010E946A
:1007B0008C0062E370E080E090E00E9473018AE2C6
:1007C00091E00E94F5026091000170910101809119
:1007D0000201909103010E94100387E391E0FF90D2
:1007E000EF90DF90CF900C9402031F920F920FB600
:1007F0000F9211242F933F938F939F93AF93BF93A7
:100800008091ED019091EE01A091EF01B091F00186
:100810003091EC0123E0230F2D3758F50196A11DEF
:10082000B11D2093EC018093ED019093EE01A09314
:10083000EF01B093F0018091F1019091F201A0914C
:10084000F301B091F4010196A11DB11D8093F10156
:100850009093F201A093F301B093F401BF91AF9193
:100860009F918F913F912F910F900FBE0F901F90EE
:10087000189526E8230F0296A11DB11DD2CF1F9215
:100880000F920FB60F9211242F933F934F935F93C4
:100890006F937F938F939F93AF93BF93EF93FF9348
:1008A00085EF91E00E943002FF91EF91BF91AF91EF
:1008B0009F918F917F916F915F914F913F912F9178
:1008C0000F900FBE0F901F9018951F920F920FB6AA
:1008D0000F9211242F938F939F93EF93FF93E091A7
:1008E0000502F09106028081E0910B02F0910C026A
:1008F00082FD1BC0908180910E028F5F8F732091CB
:100900000F02821741F0E0910E02F0E0EB50FE4F33
:10091000958F80930E02FF91EF919F918F912F9170
:100920000F900FBE0F901F9018958081F4CF789490
:1009300084B5826084BD84B5816084BD85B58260E4
:1009400085BD85B5816085BD80916E008160809395
:100950006E001092810080918100826080938100FE
:10096000809181008160809381008091800081600E
:10097000809380008091B10084608093B100809169
:10098000B00081608093B00080917A008460809391
:100990007A0080917A00826080937A0080917A0058
:1009A000816080937A0080917A00806880937A00D9
:1009B0001092C100CCE9D0E0FE01249108E810E0DB
:1009C000F80184918823C9F090E0880F991FFC01F9
:1009D000E859FF4FA591B491FC01E458FF4F4591B0
:1009E00054919FB7F8943C91822F809583238C93E8
:1009F000FA018081282B20839FBFE7EAF0E0249151
:100A0000E3E9F0E08491882399F090E0880F991F42
:100A1000FC01E859FF4FA591B491FC01E458FF4F48
:100A2000859194918FB7F894EC91E22BEC938FBF62
:100A300080E00E942301609100017091010180918A
:100A40000201909103010E948C008CE391E00E94CE
:100A5000020384E591E00E94F5026091000170912B
:100A6000010180910201909103010E948B0390EBA0
:100A7000E92E90E0F92E9924939420E0C22E20E0F4
:100A8000D22E88248394F7018491FE01B490F8015A
:100A9000A490AA2009F4C7C081110E94FA00EA2D8F
:100AA000F0E0EE0FFF1FEE58FF4FA591B4918C912F
:100AB000B82291E080E009F490E0A92EB82EFA2D3A
:100AC000F1707F2E80910501F81761F00E94A60158
:100AD0006093E8017093E9018093EA019093EB0140
:100AE000709205010E94A6012091E8013091E90170
:100AF0004091EA015091EB01621B730B840B950B43
:100B00006F31710581059105B8F080910401781667
:100B100099F06090E20170920401AB2809F086C060
:100B20000E94A6016093E4017093E5018093E601C1
:100B30009093E7011092E30180910401811132C08A
:100B40008091E30181112EC0B090E2010E94A601C4
:100B50004090E4015090E5016090E6017090E7015B
:100B60006419750986099709683B7B4081059105E1
:100B7000C8F08092E3018B2D89258093E2018823C0
:100B800009F49DC01092E1011092E00182E791E02A
:100B90000E94020340E550E060E570E086E090E0EE
:100BA0000E94BF028091E201882389F1A090E001B8
:100BB000B090E1011A141B0454F50E94A601409064
:100BC000DC015090DD016090DE017090DF0164195E
:100BD0007509860997096D3D754081059105B8F045
:100BE00060E875E280E090E021E0A216B10449F0EF
:100BF00082E0A816B10409F07BC060E072EC81E0ED
:100C000090E00E9499031092E1011092E001C1145A
:100C1000D10409F438CF0E941C02882309F433CF91
:100C20000E94000030CFB12CA12C49CF8091E3016C
:100C30008111B8CF0E94A6012091E4013091E50115
:100C40004091E6015091E701621B730B840B950BF9
:100C5000683B7B408105910508F0A4CF662009F42C
:100C6000A1CF8091E0019091E10101969093E10183
:100C70008093E0010E94A6016093DC017093DD0186
:100C80008093DE019093DF0140E550E068E770E07B
:100C900081E090E00E94BF0284E691E00E94F502AC
:100CA0006091E0017091E101072E000C880B990B17
:100CB0000E94100388E191E00E94F5023DCF83EA93
:100CC00091E00E94020382EB91E00E94F5026091A4
:100CD00000017091010180910201909103010E9435
:100CE0008B0348EC50E06CE271E082E090E058CF7A
:100CF00083EC91E00E9402034CE350E06CE370E06F
:100D000084E090E00E94BF027ECFE5EFF1E0138225
:100D1000128288EE93E0A0E0B0E084839583A683FE
:100D2000B7838AE091E09183808385EC90E095879A
:100D3000848784EC90E09787868780EC90E0918BA5
:100D4000808B81EC90E0938B828B82EC90E0958B92
:100D5000848B86EC90E0978B868B118E128E138E8F
:100D6000148E0895A1E21A2EAA1BBB1BFD010DC013
:100D7000AA1FBB1FEE1FFF1FA217B307E407F5074B
:100D800020F0A21BB30BE40BF50B661F771F881F27
:100D9000991F1A9469F760957095809590959B01BD
:100DA000AC01BD01CF010895EE0FFF1F0590F49136
:080DB000E02D0994F894FFCF37
:100DB800802500000101000000005202B201DF019D
:100DC8009F021002EE0102020D0A004461206368CE
:100DD8006F6E20626175643A200055415254206359
:100DE800686179206F200020627073003D3D3D20CE
:100DF80043686520646F2056414E2048414E482084
:100E08003D3D3D0042617564206869656E207461EE
:100E1800693A2000536F206C616E206E68616E3AEB
:100E280020003E3E2056616F204341552048494EE0
:100E380048202831206E68616E203D2039363030D8
:100E48002C2032206E68616E203D203131353230E1
:100E58003029003E3E2056652056414E2048414EDE
:100E68004800426175642064616E672064756E672E
:100E78003A2000536F206C616E206E68616E206BA3
:0C0E8800686F6E6720686F70206C65005A
:00000001FF
